:100000000C9434000C9446000C9446000C9446006A
:100010000C9446000C9446000C9446000C94460048
:100020000C9446000C9446000C9446000C94460038
:100030000C9446000C9446000C9446000C94460028
:100040000C9446000C9446000C9446000C94460018
:100050000C9446000C9446000C9446000C94460008
:100060000C9446000C94460011241FBECFEFD8E03C
:10007000DEBFCDBF23E0A0E0B1E001C01D92A03003
:10008000B207E1F70E94BC000C946C020C940000D3
:10009000ECEBF0E080818460808387B1806387B976
:1000A00088B1806388B9A9EBB0E08C9181608C93B2
:1000B0008C918D7F8C9382E08093B80080818160E9
:1000C00080830895ECEBF0E08081806A808308955E
:1000D0008091BC008823E4F7ECEBF0E08081806144
:1000E00080838081806880838091BC0084FDFCCF08
:1000F00008959091BC009923E4F79091B900987FFE
:10010000983071F490E0880F991F862B8093BB0084
:10011000ECEBF0E080818F7D80838081806880833C
:100120008091B900887F803211F480E0089581E0E9
:1001300008959091BC009923E4F79091B900987FBD
:10014000983129F09091B900987F983261F48093AA
:10015000BB00ECEBF0E080818F7D80838081806844
:10016000808381E008958091B900887F803311F405
:1001700082E0089581E008950E9465020E9448008F
:100180000E9429012FEF80E792E0215080409040AB
:10019000E1F700C0000087B1836087B900E02FE17C
:1001A0004FE760E080E00E94B001C1E035C02FEF72
:1001B00087EE93E0215080409040E1F700C00000BE
:1001C000DC2FDD0FDD0FDC0FD195D15EFC2EFF0C97
:1001D0008F2D8C0F482F440F41951FE7140FFC0EF5
:1001E00000E02D2F412F6F2D8F2D0E94B001C530C3
:1001F00039F401E02D2F412F6F2D8F2D0E94B0017A
:100200002FEF81EE94E0215080409040E1F700C054
:1002100000000E941002CF5FC63048F22FEF81EE3F
:1002200094E0215080409040E1F700C000000E941F
:1002300003020E941002B2CFCF93C62F8295880F7F
:10024000880F807C0E9499008C2F0E949900CF918A
:1002500008950E94620060E08CE30E9479006EEADB
:1002600080E00E941C0168EA80E00E941C018FEF80
:100270000E94990063ED80E00E941C0180E00E94D2
:10028000990060E480E00E941C0160EA80E00E9426
:100290001C0160EC80E00E941C016AED80E00E947D
:1002A0001C0182E00E94990061E880E00E941C012C
:1002B0008FE70E94990064EA80E00E941C0166EAD0
:1002C00080E00E941C0165ED80E00E941C0180E836
:1002D0000E9499006DE880E00E941C0184E10E9468
:1002E00099006FEA80E00E941C010E946800089556
:1002F000442319F04130D9F00895962F969596959C
:100300009695E82FF0E080E8989FE00DF11D11240C
:10031000677081E090E002C0880F991F6A95E2F74C
:10032000E050FF4F80959081892380830895962F18
:10033000969596959695E82FF0E080E8989FE00DC9
:10034000F11D1124677081E090E002C0880F991FB1
:100350006A95E2F7E050FF4F9081892B80830895E2
:10036000DF92EF92FF920F931F93CF93DF93182F9B
:10037000F62ED42FD22EC0E007C041E06F2D8C2F77
:10038000810F0E947801CF5FCD17B8F3C0E008C09D
:1003900041E06F2D6D0D8C2F810F0E947801CF5F92
:1003A000CD17B0F3C0E008C06C2F6F0D41E08D2F6A
:1003B000810F0E947801CF5FCD15B0F3C0E007C078
:1003C0006C2F6F0D41E0812F0E947801CF5FCD151A
:1003D000B8F3EE24E3940DC0402F6E2D6F0D8C2FDB
:1003E000810F0E947801CF5F01C0C1E0CD17A0F35B
:1003F000E394ED14D0F3DF91CF911F910F91FF9013
:10040000EF90DF90089580E090E005C0FC01E0509F
:10041000FF4F10820196811522E09207B8F30895EC
:10042000CF93DF930E94620060E08CE30E9479002A
:1004300060E280E00E941C0180E00E94990061E27D
:1004400080E00E941C0180E00E9499008FEF0E94D2
:10045000990062E280E00E941C0180E00E94990005
:100460008FEF0E9499000E9468000E94620060E085
:100470008CE30E94790060E480E00E941C010E94ED
:100480006800D0E01DC00E94620060E08CE30E9422
:10049000790080E40E949900C0E00DC0EC2FF0E0EC
:1004A00080E1D89FE00DF11D1124E050FF4F8081C5
:1004B0000E949900CF5FC03188F30E946800DF5F1F
:1004C000D03208F3DF91CF9108958AB180668AB95E
:0C04D0008AB18F778AB90895F894FFCFA5
:00000001FF
