S01500004C45445F424C494E4B5F3535352E737265636D
S11300000C9434000C943E000C943E000C943E007E
S11300100C943E000C943E000C943E000C943E0064
S11300200C943E000C943E000C943E000C943E0054
S11300300C943E000C943E000C943E000C943E0044
S11300400C943E000C943E000C943E000C943E0034
S11300500C943E000C943E000C943E000C943E0024
S11300600C943E000C943E0011241FBECFEFD8E048
S1130070DEBFCDBF0E9440000C9450000C940000E1
S113008084B1806184B985B1826085B987E893E1E0
S11300900197F1F700C0000085B18D7F85B9F3CFDA
S10700A0F894FFCFFE
S9030000FC
