:100000000C9434000C9484020C9484020C948402AA
:100010000C9484020C9484020C9484020C94840248
:100020000C9484020C9484020C9484020C94840238
:100030000C9484020C9484020C9484020C94840228
:100040000C9484020C9484020C9484020C94840218
:100050000C9484020C9484020C9484020C94840208
:100060000C9484020C94840211241FBECFEFD8E0BC
:10007000DEBFCDBFE8E6F0E040E017C0B591A59146
:1000800035912591059107FD0CC095918591EF0162
:10009000F92FE82F05900D92A217B307D9F7FE01AB
:1000A00004C01D92A217B307E1F7E836F40731F751
:0C00B0000E945E000C946A02F894FFCFDE
:1000BC00CF93DF93CDB7DEB7C250D2400FB6F894D2
:1000CC00DEBF0FBECDBF87B1836087B98AB18061B7
:1000DC008AB90E9475028CB582608CBD0E944B025D
:1000EC000E94C300182F811104C088B1816088B9A7
:1000FC0007C00E94C300882319F088B1826088B9B8
:10010C00111137C02FEF85EA9EE0215080409040BE
:10011C00E1F700C0000088B18E7F88B988B18D7F6F
:10012C0088B9AE014F5F5F4F60E070E0CB010E9479
:10013C000D01823021F498B1916098B90BC088B14F
:10014C00826088B9AE014F5F5F4F60E070E0CB0119
:10015C000E940D0198B19E7F98B998B19D7F98B976
:10016C00823021F488B1816088B903C088B1826083
:0A017C0088B98BB180618BB9FCCF0C
:10018600EF92FF921F93CF93DF93CDB7DEB72997F8
:100196000FB6F894DEBF0FBECDBF0E9434020E9498
:1001A600BA01813029F5CE0101960E9454018D8154
:1001B6008A3A19F08C818130E9F4CE0105960E94C5
:1001C6007701E12CF12C85E6E816F104A8F40E94EB
:1001D600DA01823010F40E9499019FEFE91AF90AB8
:1001E600182F8111F0CFCE0105960E94770105C028
:1001F60011E003C011E001C011E0812F29960FB66E
:10020600F894DEBF0FBECDBFDF91CF911F91FF9057
:04021600EF900895C8
:10021A00CF92DF92EF92FF92CF936B017C018FEF27
:10022A000E947E0285B18B7F85B98FEF0E947E0284
:10023A00C0E0CF3F51F020E0B701A60181E10E9462
:10024A0031010E945B02CF5FF4CF83E0CF91FF9030
:08025A00EF90DF90CF900895B2
:10026200FF920F931F93CF93DF93D42F152F062F57
:10027200F72EC22F80640E947E028F2D0E947E0282
:10028200802F0E947E02812F0E947E028D2F0E946B
:100292007E028C2F81600E947E02DF91CF911F919E
:0602A2000F91FF9008958A
:1002A800CF93DF93EC018FEF0E947E0285B18B7FA5
:1002B80085B98FEF0E947E0227E84AEA51E060E0A4
:1002C80070E088E00E943101CE010E9419028FEF90
:1002D8000E947E0285B1846085B98FEF0E947E02FC
:0602E800DF91CF910895A3
:1002EE00CF93DF93EC018FEF0E947E0285B18B7F5F
:1002FE0085B98FEF0E947E0220E040E050E0BA0107
:10030E008AE30E943101CE010E94FA018FEF0E9412
:10031E007E0285B1846085B98FEF0E947E02DF91E7
:04032E00CF910895CE
:10033200CF938FEF0E947E0285B18B7F85B98FEFBD
:100342000E947E0220E040E050E060E070E489E23A
:100352000E9431010E945B02C82F8FEF0E947E0231
:1003620085B1846085B98FEF0E947E028C2FCF9178
:020372000895EC
:10037400CF938FEF0E947E0285B18B7F85B98FEF7B
:100384000E947E0224E940E050E0BA0180E00E942D
:1003940031010E945B02C82F8FEF0E947E0285B15B
:1003A400846085B98FEF0E947E028C2FCF910895CF
:1003B400CF938FEF0E947E0285B18B7F85B98FEF3B
:1003C4000E947E0220E040E050E0BA0187E30E94F0
:1003D40031010E945B02C82F8FEF0E947E0285B11B
:1003E400846085B98FEF0E947E028C2FCF9108958F
:1003F400CF93DF93EC010E945B0290E099838883A2
:10040400029790F48FEF0E947E0290E09B838A8390
:100414008FEF0E947E0290E09D838C838FEF0E9479
:0E0424007E0290E09F838E83DF91CF9108953A
:10043200CF93DF93EC010E945B028883823080F4C9
:100442008FEF0E947E0289838FEF0E947E028A8351
:100452008FEF0E947E028B838FEF0E947E028C833D
:06046200DF91CF91089527
:10046800CF938BB18B7F8BB989EF90E00197F1F730
:1004780000C00000C0E004C08FEF0E947E02CF5F82
:0E048800CA30D0F38BB184608BB9CF91089548
:10049600E2ECF0E0808186608083E1ECF0E0808130
:1004A6008860808387E68093C4001092C500089513
:1004B600CF93C0E003C0CF5FC93030F48FEF0E9406
:0E04C6007E028F3FC1F301C08FEFCF910895EA
:1004D400EC010E9489020E948802CE010E948A02D5
:0604E400CE010E94860219
:1004EA0084B18C6284B984B1806184B980E58CBDA1
:0204FA00089563
:0C04FC008EBD0DB407FEFDCF8EB5089537
:040508000C9400004F
:04050C000E945C00ED
:0205100008954C
:0205120008954A
:02051400089548
:00000001FF
